:100000000C9462000C948A000C948A000C948A0070
:100010000C948A000C948A000C948A000C948A0038
:100020000C948A000C948A000C948A000C948A0028
:100030000C948A000C948A000C948A000C948A0018
:100040000C948A030C948A000C948A000C948A0005
:100050000C948A000C948A000C948A000C948A00F8
:100060000C948A000C948A000000000023002600F3
:10007000290000000000240027002A0000000000E2
:10008000250028002B0004040404040404040202D4
:100090000202020203030303030301020408102007
:1000A0004080010204081020010204081020000012
:1000B0000008000201000003040700000000000027
:1000C0000000560511241FBECFEFD8E0DEBFCDBF24
:1000D00011E0A0E0B1E0E0EFFDE002C005900D927C
:1000E000A633B107D9F721E0A6E3B1E001C01D9224
:1000F000AB35B207E1F710E0C2E6D0E004C02197CB
:10010000FE010E94EB06C136D107C9F70E9419040F
:100110000C94F6060C94000090E0FC01E255FF4FB1
:100120002491FC01E656FF4F3491FC01EA57FF4F42
:10013000E491EE2309F43CC0222339F1233091F0FD
:1001400038F42130A9F0223001F584B58F7D12C03A
:10015000273091F02830A1F02430B9F4809180004C
:100160008F7D03C0809180008F77809380000DC0C9
:1001700084B58F7784BD09C08091B0008F7703C0AC
:100180008091B0008F7D8093B000F0E0EE0FFF1FF4
:10019000E458FF4FA591B4919FB7F894611104C042
:1001A0008C913095382302C0EC913E2B3C939FBF3D
:1001B0000895CF93DF9390E0FC01E656FF4F249122
:1001C000FC01EA57FF4F8491882361F190E0880F8A
:1001D000991FFC01EE58FF4FC591D491FC01E458E2
:1001E000FF4FA591B491611109C09FB7F894888120
:1001F000209582238883EC912E230BC0623061F41A
:100200009FB7F8948881322F309583238883EC91AF
:100210002E2B2C939FBF06C08FB7F894E8812E2B0E
:1002200028838FBFDF91CF9108953FB7F8948091D5
:100230003F0190914001A0914101B091420126B54A
:10024000A89B05C02F3F19F00196A11DB11D3FBF0E
:10025000BA2FA92F982F8827820F911DA11DB11D9C
:10026000BC01CD0142E0660F771F881F991F4A9598
:10027000D1F708958F929F92AF92BF92CF92DF9263
:10028000EF92FF920E9415014B015C0188EEC82E8F
:1002900083E0D82EE12CF12C0E941501DC01CB016A
:1002A00088199909AA09BB09883E9340A105B1059F
:1002B00098F321E0C21AD108E108F10888EE880E0F
:1002C00083E0981EA11CB11CC114D104E104F10407
:1002D00019F7FF90EF90DF90CF90BF90AF909F9075
:1002E0008F900895CF92DF92EF92FF920F931F931A
:1002F000CF93DF936C017A018B01C0E0D0E0CE1583
:10030000DF0581F0D8016D918D01D601ED91FC9151
:100310000190F081E02DC6010995892B11F02196FD
:10032000EECF7E01C701DF91CF911F910F91FF901A
:10033000EF90DF90CF900895CF93DF93EC0160E0D2
:100340008E810E948C0061E08E810E948C0060E0B2
:100350008E810E948C008BE891E00197F1F7DF918C
:10036000CF910895CF92DF92EF92FF920F931F9358
:10037000CF93DF936C017C0187E0E80EF11CC0E0B5
:10038000D0E0062F10E0B8010C2E02C075956795DD
:100390000A94E2F76170F70181917F010E948C005D
:1003A0002196C430D10579F7C601DF91CF911F9115
:1003B0000F91FF90EF90DF90CF900C949C01CF9223
:1003C000DF92EF92FF920F931F93CF93DF93EC0195
:1003D000F62E642F8C810E948C008D818F3F19F046
:1003E00060E00E948C008F850F2D10E084FF25C0F7
:1003F0006E0187E0C80ED11CE12CF12CB8010E2C47
:1004000002C0759567950A94E2F76170F6018191D3
:100410006F010E948C00FFEFEF1AFF0A88E0E816D8
:10042000F10461F7CE01DF91CF911F910F91FF9001
:10043000EF90DF90CF900C949C01B80184E075950B
:1004400067958A95E1F7CE010E94B2016F2DCE012A
:10045000DF91CF911F910F91FF90EF90DF90CF90A0
:100460000C94B20140E0682F83E491E00C94DF012A
:1004700081E00E9432028BE39FE10197F1F708953A
:10048000CF93DF93823028F090915201986090933F
:100490005201809356011092570180E480935801D5
:1004A00080E18093590180E580935A0161E0809159
:1004B00047010E94D900809148018F3F19F061E007
:1004C0000E94D90061E0809149010E94D900C3E4F3
:1004D000D1E09E01235431408091520184FD03C03C
:1004E00084E090E002C088E090E021962817390768
:1004F0002CF461E08E810E94D900EBCF8BE39DE06C
:100500000197F1F760E0809147010E948C0060E064
:10051000809149010E948C00809148018F3F19F021
:1005200060E00E948C008091520184FD20C063E055
:1005300083E491E00E94B201CBE4D6E4CE010197BE
:10054000F1F763E083E491E00E94B2012197F1F7B3
:1005500063E083E491E00E94B20183E592E00197B9
:10056000F1F762E083E491E00E94B20115C080627D
:100570000E9432028BE496E40197F1F780915201D8
:1005800080620E94320283E592E00197F1F7809148
:10059000520180620E9432028091520180620E9468
:1005A000320284E0809353018CE00E9432020E9468
:1005B000380282E08093540186E0DF91CF910C9461
:1005C0003202E1E0809156018111E0E0E195F0E036
:1005D000ED5BFE4F848980680C94320241E00E94FA
:1005E000DF0181E090E00895089580E090E00895B3
:1005F000009769F0FC0101900020E9F73197AF0105
:10060000481B590BBC0183E491E00C94720180E01B
:1006100090E00895CF93DF938CE091E00E94F80280
:10062000EC018EE091E00E94F8028C0F9D1FDF919B
:10063000CF9108958F929F92AF92BF92CF92DF9207
:10064000EF92FF92CF93DF93CDB7DEB7A1970FB6AE
:10065000F894DEBF0FBECDBF6B017C0197FF2AC0AF
:1006600041E06DE283E491E00E94DF01222733271D
:10067000A9012C193D094E095F0919A2CE018196E5
:100680007C019AE0892E912CA12CB12CCA01B901D0
:10069000A50194010E94AA06605DF70162937F01A3
:1006A000211531054105510589F7CF010E94F80256
:1006B00001961DC09B01AC0119A2CE0181967C015F
:1006C0008AE0882E912CA12CB12CCA01B901A50178
:1006D00094010E94AA06605DF70162937F012115D3
:1006E00031054105510589F7CF010E94F802A19615
:1006F0000FB6F894DEBF0FBECDBFDF91CF91FF9054
:10070000EF90DF90CF90BF90AF909F908F90089523
:100710000E94F1061F920F920FB60F9211242F9391
:100720003F938F939F93AF93BF9380913B019091A1
:100730003C01A0913D01B0913E0130913A0123E08E
:10074000230F2D3720F40196A11DB11D05C026E809
:10075000230F0296A11DB11D20933A0180933B0106
:1007600090933C01A0933D01B0933E0180913F01E5
:1007700090914001A0914101B09142010196A11DCB
:10078000B11D80933F0190934001A0934101B0932C
:100790004201BF91AF919F918F913F912F910F9007
:1007A0000FBE0F901F901895CF92DF92EF92FF929D
:1007B0000F931F93E82FF92F05C00150110921094C
:1007C000310961F1908196239417B9F305C0015066
:1007D00011092109310911F1908196239413F7CF62
:1007E000C12CD12CE12CF12C0AC08FEFC81AD80AE9
:1007F000E80AF80A0C151D052E053F0579F08081E1
:100800008623841791F36C2D7D2D8E2D9F2D1F91A6
:100810000F91FF90EF90DF90CF90089560E070E02F
:1008200080E090E01F910F91FF90EF90DF90CF90CC
:100830000895789484B5826084BD84B5816084BD58
:1008400085B5826085BD85B5816085BD80916E006E
:10085000816080936E00109281008091810082609F
:1008600080938100809181008160809381008091DC
:1008700080008160809380008091B10084608093CB
:10088000B1008091B00081608093B00080917A00C7
:10089000846080937A0080917A00826080937A00ED
:1008A00080917A00816080937A0080917A008068DC
:1008B00080937A001092C10082E00E94400261E0C1
:1008C00083E00E94D90060E082E00E94D90061E0EC
:1008D0008AE00E94D90061E08BE00E94D90061E0CB
:1008E0008CE00E94D900C3E0D0E093E2E92EF12C25
:1008F0002CE9822E20E0922E38E8C32E30E0D32E51
:1009000044E1442E512C612C712C50E0A52E50E076
:10091000B52E0E9438020E94E10260E083E00E944E
:100920008C00CE010197F1F761E083E00E948C001A
:10093000C7010197F1F760E083E00E948C00F401A9
:100940006491F6018491E82FF0E0EE0FFF1FE85963
:10095000FF4F8591949100E412E42FE030E0462FA0
:100960000E94D403611571058105910549F0DC01F0
:10097000CB010196A11DB11DBC01CD019F7003C02B
:1009800060E070E0CB01A30192010E94CC06CA0195
:10099000B9010E941E062DEC3CEC48EE51E40E9489
:1009A00074050E94E60560933601709337018093C9
:1009B0003801909339018B019C01045111092109DF
:1009C00031090F3111052105310508F50E94380262
:1009D0000E94E10281E191E00E94F80260913601FB
:1009E0007091370180913801909139010E941A036A
:1009F0000E940A030E943A0161E08AE00E948C0092
:100A000060E08BE00E948C0060E08CE046C0DC017E
:100A1000CB010A97A109B1090A97A105B105E8F42C
:100A20000E9438020E94E1028DE191E00E94F802EA
:100A300060913601709137018091380190913901B0
:100A40000E941A030E940A030E943A0161E08BE0AF
:100A50000E948C0060E08CE01CC00E9438020E9462
:100A6000E10289E291E00E94F80260913601709102
:100A7000370180913801909139010E941A030E9438
:100A80000A030E943A0161E08CE00E948C0060E061
:100A90008BE00E948C0060E08AE00E948C00A11430
:100AA000B10409F436CF0E94000033CFE3E4F1E053
:100AB0001382128284E091E09183808389E08483B1
:100AC0008FEF858388E0868384E0878385E0808755
:100AD00086E0818787E082871386148615861686CE
:100AE000178681E00C9440020E9488050C947006E1
:100AF0000E94690658F00E94620640F029F45F3FA8
:100B000029F00C94590651110C94A4060C945F061C
:100B10000E94810668F39923B1F3552391F3951B45
:100B2000550BBB27AA2762177307840738F09F5F0E
:100B30005F4F220F331F441FAA1FA9F335D00E2E7B
:100B40003AF0E0E832D091505040E695001CCAF7E8
:100B50002BD0FE2F29D0660F771F881FBB1F2617AB
:100B600037074807AB07B0E809F0BB0B802DBF0182
:100B7000FF2793585F4F3AF09E3F510578F00C9451
:100B800059060C94A4065F3FE4F3983ED4F386958F
:100B900077956795B795F7959F5FC9F7880F911D72
:100BA0009695879597F90895E1E0660F771F881F5E
:100BB000BB1F621773078407BA0720F0621B730B11
:100BC000840BBA0BEE1F88F7E09508950E94ED059F
:100BD0006894B1110C94A40608950E94890688F0C7
:100BE0009F5798F0B92F9927B751B0F0E1F0660FF1
:100BF000771F881F991F1AF0BA95C9F714C0B13032
:100C000091F00E94A306B1E008950C94A306672F0B
:100C1000782F8827B85F39F0B93FCCF38695779560
:100C20006795B395D9F73EF4909580957095619549
:100C30007F4F8F4F9F4F0895E89409C097FB3EF474
:100C400090958095709561957F4F8F4F9F4F992319
:100C5000A9F0F92F96E9BB279395F6958795779597
:100C60006795B795F111F8CFFAF4BB0F11F460FF57
:100C70001BC06F5F7F4F8F4F9F4F16C0882311F0AF
:100C800096E911C0772321F09EE8872F762F05C0C3
:100C9000662371F096E8862F70E060E02AF09A955E
:100CA000660F771F881FDAF7880F9695879597F953
:100CB000089597F99F6780E870E060E008959FEFDE
:100CC00080EC089500240A941616170618060906E3
:100CD000089500240A9412161306140605060895B2
:100CE000092E0394000C11F4882352F0BB0F40F43A
:100CF000BF2B11F460FF04C06F5F7F4F8F4F9F4F7A
:100D0000089557FD9058440F551F59F05F3F71F0FB
:100D10004795880F97FB991F61F09F3F79F0879562
:100D20000895121613061406551FF2CF4695F1DFEB
:100D300008C0161617061806991FF1CF869571057B
:100D4000610508940895E894BB2766277727CB01AF
:100D500097F90895A1E21A2EAA1BBB1BFD010DC035
:100D6000AA1FBB1FEE1FFF1FA217B307E407F5075B
:100D700020F0A21BB30BE40BF50B661F771F881F37
:100D8000991F1A9469F760957095809590959B01CD
:100D9000AC01BD01CF010895052E97FB1EF4009410
:100DA0000E94E30657FD07D00E94AA0607FC03D065
:100DB0004EF40C94E30650954095309521953F4FA5
:100DC0004F4F5F4F089590958095709561957F4F37
:100DD0008F4F9F4F0895EE0FFF1F0590F491E02D68
:100DE000099481E090E0F8940C94F606F894FFCF13
:100DF00000000000EE027201F502F4026D000D0A1F
:100E0000004E6F43617246726F6E742000436172D0
:100E1000496E46726F6E7420005761726E696E671C
:060E200043617220000096
:00000001FF
